S0140000736D617274686F6D653532392E73726563A0
S11300000C942A000C9447000C9447000C9447006D
S11300100C9447000C9447000C9447000C94470040
S11300200C9447000C9447000C9447000C94470030
S11300300C9447000C9447000C9447000C94470020
S11300400C9447000C9447000C9447000C94470010
S11300500C94470011241FBECFE5D8E0DEBFCDBF0E
S113006014E0A0E6B0E0E0E0F5E202C005900D92F5
S1130070A434B107D9F724E0A4E4B4E001C01D928C
S1130080A539B207E1F70E949B0D0C947E120C94E3
S113009000001ABA80EF84BB8BB381608BBB8BB337
S11300A082608BBB8BB384608BBB8BB388608BBB50
S11300B085B3806185BB85B3806285BB85B380646D
S11300C085BB85B3806885BB089581EE94E0019774
S11300D0F1F700C0000085B38F7E85BB85B38062D5
S11300E085BB85B3806485BB85B3806885BBE1EE41
S11300F0F4E03197F1F700C00000C89B08C0C99B29
S113010008C0CA9B08C0CB9B08C080E007C087E337
S113011005C084E303C081E301C08AE295B3906122
S113012095BB95B39F7D95BB95B3906495BB95B3F3
S1130130906895BBE1EEF4E03197F1F700C0000060
S1130140C89B07C0C99B07C0CA9B07C0CB9B07C0FD
S113015007C088E305C085E303C082E301C080E3F0
S113016095B3906195BB95B3906295BB95B39F7B16
S113017095BB95B3906895BBE1EEF4E03197F1F748
S113018000C00000C89B07C0C99B07C0CA9B07C02A
S1130190CB9B07C007C089E305C086E303C083E3A4
S11301A001C083E295B3906195BB95B3906295BB12
S11301B095B3906495BB95B39F7795BBE1EEF4E05E
S11301C03197F1F700C00000C89B07C0C99B07C066
S11301D0CA9B07C0CB9B07C008958BE208958DE2AC
S11301E008958AE208958FE2089592B39F7B92BBAB
S11301F0E9EFF0E03197F1F700C0000092B39068A6
S113020092BBE9EFF0E03197F1F700C00000982FBE
S113021092959F7098BB92B39F7792BBE9EFF0E001
S11302203197F1F700C0000092B39F7B92BB92B369
S1130230906892BBE9EFF0E03197F1F700C000005D
S11302408F7088BB82B38F7782BB89EF90E0019770
S1130250F1F700C00000089581B3806C81BB8FE08A
S113026087BB82E00E94F50088E20E94F50081E0ED
S11302700E94F5008CE00E94F500089581E00E9440
S1130280F500089592B3906492BBE9EFF0E03197E2
S1130290F1F700C0000092B3906892BBE9EFF0E080
S11302A03197F1F700C00000982F92959F7098BB8A
S11302B092B39F7792BBE9EFF0E03197F1F700C07A
S11302C0000092B3906492BB92B3906892BBE9EF42
S11302D0F0E03197F1F700C000008F7088BB82B363
S11302E08F7782BB89EF90E00197F1F700C000009F
S11302F008950F931F93CF93DF938C01C0E0D0E058
S113030003C00E9442012196F801EC0FFD1F808179
S11303108111F7CFDF91CF911F910F910895813013
S113032039F058F0823031F0833031F060E005C0AC
S1130330605C03C0605F01C0605B862F80680E94C0
S1130340F5000895CF93DF93EA010E948F01CE0157
S11303500E947901DF91CF9108954AE00E944912E9
S113036008958CE690E00E94AE0F89E790E00E9429
S1130370AE0F86E890E00E94AE0F86E990E00E94FE
S1130380AE0F87EA90E00E94AE0F88EB90E00E94E7
S1130390AE0F87EC90E00E94AE0F8BED90E00E94D0
S11303A0AE0F08954BEE50E060E080E00E94A201A1
S11303B042EF50E068E080E00E94A20147EF50E085
S11303C060E081E00E94A20140E051E069E081E048
S11303D00E94A20108958FEF87BB0E943E0147E06F
S11303E051E060E080E00E94A20184E191E00E947B
S11303F0AE0F88B3EAE6F0E091818F70892B88BB59
S11304002FE382E49FE0215080409040E1F700C058
S1130410000088B390818F70892B88BB089583E393
S113042091E00E94AE0F82E491E00E94AE0F089525
S11304300F931F93CF938C01C0E00AC0F801EC0F17
S1130440F11D66E06C0F408180EA0E940A0FCF5FC5
S1130450C430A0F3CF911F910F9108950F931F9370
S1130460CF938C01C0E006C062E06C0F80EA0E946A
S11304700A0FCF5FF801EC0FF11D40814111F4CF59
S1130480CF911F910F91089582E690E00E942E0271
S113049086E690E00E9418020895EF92FF920F936F
S11304A01F93CF93DF931F92CDB7DEB77C011982E0
S11304B000E010E013C0CE0101960E94C40F9981A0
S11304C09D3079F0809155048F5F80935504F70136
S11304D0E00FF11F908319820F5F1F4F0430110545
S11304E054F30F90DF91CF911F910F91FF90EF90F4
S11304F0089580915204803309F054C080E591E05E
S11305000E94AE0F89E894E00E944D020EC0E62FCF
S1130510F0E0E757FB4F665F408180EA0E940A0FD4
S1130520809154048F5F8093540460915404643028
S113053070F31092540489E992E00E94AE0F2FE503
S11305408AEE90E0215080409040E1F700C0000026
S113055085E691E00E94AE0F83E694E00E944D028E
S11305600EC0E62FF0E0ED59FB4F625F408180EA58
S11305700E940A0F809154048F5F80935404609109
S11305805404643070F31092540481E38093610046
S113059041E360E080EA0E940A0F89E992E00E9448
S11305A0AE0F0895813309F054C086E891E00E94AB
S11305B0AE0F81E994E00E944D020EC0E62FF0E0F8
S11305C0EF56FB4F6E5E408180EA0E940A0F8091D5
S11305D054048F5F8093540460915404643070F326
S11305E01092540489E992E00E94AE0F2FE58AEE3E
S11305F090E0215080409040E1F700C000008BE97A
S113060091E00E94AE0F80E794E00E944D020EC07C
S1130610E62FF0E0E059FB4F6A5E408180EA0E94D9
S11306200A0F809154048F5F8093540460915404A2
S1130630643070F31092540482E38093610042E3C7
S113064060E080EA0E940A0F89E992E00E94AE0FFE
S11306500895823309F054C08CEB91E00E94AE0FF0
S113066088E794E00E944D020EC0E62FF0E0E858BF
S1130670FB4F665E408180EA0E940A0F8091540419
S11306808F5F8093540460915404643070F310922B
S1130690540489E992E00E94AE0F2FE58AEE90E0BF
S11306A0215080409040E1F700C0000081ED91E0CE
S11306B00E94AE0F84E794E00E944D020EC0E62F24
S11306C0F0E0EC58FB4F625E408180EA0E940A0F22
S11306D0809154048F5F8093540460915404643077
S11306E070F31092540483E38093610043E360E069
S11306F080EA0E940A0F89E992E00E94AE0F0895F1
S113070082EF91E00E94AE0F89E992E00E94AE0F61
S1130710109251040895CF93DF93DC01C0E0D0E040
S113072020E030E00DC0FD01E20FF31F4081FB012A
S1130730E20FF31F9081491301C021962F5F3F4FB1
S11307402430310584F3249719F481E090E002C049
S113075080E090E0DF91CF91089580916000815016
S1130760809360001092530481E192E00E94AE0FE6
S113077040916100415040936100403341F460E096
S113078080EA0E940A0F8AE292E00E94AE0F8091F2
S11307906100813361F48093610041E360E080EAA9
S11307A00E940A0F81E492E00E94AE0F0895823302
S11307B059F48093610042E360E080EA0E940A0FEA
S11307C088E592E00E94AE0F0895CF93DF93CDB7F2
S11307D0DEB728970FB6F894DEBF0FBECDBF809169
S11307E06100803359F48FE692E00E94AE0F40918D
S11307F0610060E080EA0E940A0FB7C084E892E0DA
S11308000E94AE0FCE0101960E944D0288E992E04B
S11308100E94AE0F8AEA92E00E94AE0FCE010596C6
S11308200E944D0288E992E00E94AE0FBE016F5F04
S11308307F4F89E894E00E948B03019761F5BE0124
S11308406B5F7F4F83E694E00E948B03019719F559
S11308501BC0665F4FEF80EA0E940A0F6091530449
S1130860625F4FEF80EA0E940A0F80915304282FA1
S113087030E0F901E757FB4F1082F901ED59FB4FC6
S113088010828F5F8093530460915304643008F3A3
S11308900E94AD036AC061E974E0CE0101960E9432
S11308A08B03019759F560E774E0CE0105960E9429
S11308B08B03019719F51BC06E5E4FEF80EA0E940F
S11308C00A0F609153046A5E4FEF80EA0E940A0F98
S11308D080915304282F30E0F901EF56FB4F10822A
S11308E0F901E059FB4F10828F5F809353046091AC
S11308F05304643008F30E94AD0337C068E774E022
S1130900CE0101960E948B03019759F564E774E0C8
S1130910CE0105960E948B03019719F51BC0665EF4
S11309204FEF80EA0E940A0F60915304625E4FEF1A
S113093080EA0E940A0F80915304282F30E0F901C5
S1130940E858FB4F1082F901EC58FB4F10828F5F7F
S11309508093530460915304643008F30E94AD0300
S113096004C08FEB92E00E94AE0F28960FB6F89465
S1130970DEBF0FBECDBFDF91CF9108951F93CF93FC
S1130980DF931F92CDB7DEB7182F198284B38C6022
S113099084BB81B38C6081BB8AB380688ABB87EADD
S11309A091E60197F1F700C000000E943E01412F3B
S11309B06FE380EA0E940A0F4FE360EACE010196DA
S11309C00E94270F8981833309F45DC028F48133A1
S11309D051F0823381F1D4C0843309F47CC085336F
S11309E009F4A1C0CDC085B3846085BB85B3877F7E
S11309F085BB81B3877F81BB81B38B7F81BB8AB386
S1130A008F778ABB85B3877F85BB82B3877F82BBA1
S1130A1082B38B7F82BB8BB38F778BBB87EA91E6E4
S1130A200197F1F700C0000040ED52E060E080E083
S1130A300E94A201A5C085B3886085BB84B38B7F67
S1130A4084BB81B3877F81BB81B38B7F81BB8AB336
S1130A508F778ABB85B38B7F85BB82B3877F82BB4D
S1130A6082B38B7F82BB8BB38F778BBB87EA91E694
S1130A700197F1F700C0000049ED52E060E080E02A
S1130A800E94A2017DC082B3846082BB84B3877F4D
S1130A9084BB81B3877F81BB84B38B7F84BB8AB3E0
S1130AA08F778ABB85B3877F85BB82B3877F82BB01
S1130AB085B38B7F85BB8BB38F778BBB87EA91E63E
S1130AC00197F1F700C0000042EE52E060E080E0E0
S1130AD00E94A20155C082B3886082BB84B3877F21
S1130AE084BB84B38B7F84BB81B38B7F81BB8AB38C
S1130AF08F778ABB85B3877F85BB85B38B7F85BBA7
S1130B0082B38B7F82BB8BB38F778BBB87EA91E6F3
S1130B100197F1F700C000004BEE52E060E080E086
S1130B200E94A2012DC08BB380688BBB84B38B7FE2
S1130B3084BB84B3877F84BB81B38B7F81BB81B348
S1130B40877F81BB84B38B7F84BB85B3877F85BB61
S1130B5085B38B7F85BB82B38B7F82BB82B3877F58
S1130B6082BB85B3877F85BB87EA91E60197F1F75E
S1130B7000C0000044EF52E060E080E00E94A20167
S1130B800F90DF91CF911F9108951F93CF93DF931F
S1130B901F92CDB7DEB7182F198284B38C6084BB43
S1130BA081B38C6081BB8AB380688ABB87EA91E693
S1130BB00197F1F700C000000E943E01412F61E45B
S1130BC080EA0E940A0F41E460EACE0101960E9485
S1130BD0270F8981833309F45DC028F4813351F0F0
S1130BE0823381F1D4C0843309F47CC0853309F4A1
S1130BF0A1C0CDC085B3846085BB85B3877F85BB29
S1130C0081B3877F81BB81B38B7F81BB8AB38F77AD
S1130C108ABB85B3877F85BB82B3877F82BB82B360
S1130C208B7F82BB8BB38F778BBB87EA91E601976F
S1130C30F1F700C0000040ED52E060E080E00E9467
S1130C40A201A5C085B3886085BB84B38B7F84BBB8
S1130C5081B3877F81BB81B38B7F81BB8AB38F775D
S1130C608ABB85B38B7F85BB82B3877F82BB82B30C
S1130C708B7F82BB8BB38F778BBB87EA91E601971F
S1130C80F1F700C0000049ED52E060E080E00E940E
S1130C90A2017DC082B3846082BB84B3877F84BB9E
S1130CA081B3877F81BB84B38B7F84BB8AB38F7707
S1130CB08ABB85B3877F85BB82B3877F82BB85B3BD
S1130CC08B7F85BB8BB38F778BBB87EA91E60197CC
S1130CD0F1F700C0000042EE52E060E080E00E94C4
S1130CE0A20155C082B3886082BB84B3877F84BB72
S1130CF084B38B7F84BB81B38B7F81BB8AB38F77B3
S1130D008ABB85B3877F85BB85B38B7F85BB82B365
S1130D108B7F82BB8BB38F778BBB87EA91E601977E
S1130D20F1F700C000004BEE52E060E080E00E946A
S1130D30A2012DC08BB380688BBB84B38B7F84BB33
S1130D4084B3877F84BB81B38B7F81BB81B3877F6F
S1130D5081BB84B38B7F84BB85B3877F85BB85B31D
S1130D608B7F85BB82B38B7F82BB82B3877F82BB41
S1130D7085B3877F85BB87EA91E60197F1F700C0C9
S1130D80000044EF52E060E080E00E94A2010F9076
S1130D90DF91CF911F910895CF92DF92EF92FF924E
S1130DA00F931F93CF93DF931F92CDB7DEB76C01E0
S1130DB07B01042F198210E00EC0412F400F60EA1E
S1130DC0CE0101960E94270FF601E10FF11D8981E2
S1130DD080831F5F1982143080F310E00EC0412F0E
S1130DE0400F60EACE0101960E94270FF701E10F40
S1130DF0F11D898180831F5F1982143080F30F9065
S1130E00DF91CF911F910F91FF90EF90DF90CF90E2
S1130E1008951092570421C1832F90E0FC01E757F5
S1130E20FB4F20812F3F09F1FC01ED59FB4F40811D
S1130E304F3FD9F0FC01EF56FB4F40814F3FA9F0E3
S1130E40FC01E059FB4F40814F3F79F0FC01E85829
S1130E50FB4F40814F3F49F0FC01EC58FB4F408170
S1130E604F3F19F043E3409361002F3F09F5FC0124
S1130E70ED59FB4F40814F3FD9F4FC01EF56FB4F36
S1130E8040814F3FA9F0FC01E059FB4F40814F3FA7
S1130E9079F0FC01E858FB4F40814F3F49F0FC01D9
S1130EA0EC58FB4F40814F3F19F042E340936100FF
S1130EB02F3F09F1FC01ED59FB4F40814F3FD9F021
S1130EC0FC01EF56FB4F40814F3FA9F4FC01E05970
S1130ED0FB4F40814F3F79F4FC01E858FB4F4081C0
S1130EE04F3F49F0FC01EC58FB4F40814F3F19F054
S1130EF042E3409361002F3F09F5FC01ED59FB4F9C
S1130F0040814F3FD9F4FC01EF56FB4F40814F3FE6
S1130F10A9F4FC01E059FB4F40814F3F79F4FC01F7
S1130F20E858FB4F40814F3F49F0FC01EC58FB4F20
S1130F3040814F3F19F041E3409361002F3F09F195
S1130F40FC01ED59FB4F40814F3FD9F0FC01EF56B6
S1130F50FB4F40814F3FA9F0FC01E059FB4F40811A
S1130F604F3F79F0FC01E858FB4F40814F3F49F473
S1130F70FC01EC58FB4F40814F3F19F442E340938E
S1130F8061002F3F09F5FC01ED59FB4F40814F3FB4
S1130F90D9F4FC01EF56FB4F40814F3FA9F0FC010F
S1130FA0E059FB4F40814F3F79F0FC01E858FB4F7B
S1130FB040814F3F49F4FC01EC58FB4F40814F3FC7
S1130FC019F441E3409361002F3F09F1FC01ED590D
S1130FD0FB4F40814F3FD9F0FC01EF56FB4F40815E
S1130FE04F3FA9F4FC01E059FB4F40814F3F79F496
S1130FF0FC01E858FB4F40814F3F49F4FC01EC5899
S1131000FB4F40814F3F19F441E3409361002F3F70
S113101009F5FC01ED59FB4F20812F3FD9F4FC0168
S1131020EF56FB4F20812F3FA9F4FC01E059FB4F01
S113103020812F3F79F4FC01E858FB4F20812F3F9A
S113104049F4FC01EC58FB4F80818F3F19F480E395
S1131050809361003F5F30935704309157043430DC
S113106008F4DACE08958FB583688FBD8EB58A6093
S11310708EBD81B3806281BB81B38F7E81BB0895B5
S1131080A0E0B0E07727662724E630E040E050E0B7
S11310900E942A12BA01A90141505109610971093A
S11310A0BB27A72F962F852F89BD48BD08959BBDCB
S11310B08ABD0895CF92DF92EF92FF9285E00E945D
S11310C0D30EBC0180E090E00E94E41020E030E008
S11310D040EA50E40E949B110E94AE10072E000CBF
S11310E0880B990B0E94E61020E030E040E85AE3B8
S11310F00E949B1160934A0470934B0480934C04A8
S113110090934D042AE037ED43E25CE30E943C10E7
S11311106093460470934704809348049093490471
S11311206091460470914704809148049091490469
S11311300E94AE10DC01CB0169E574E00E94AD01B0
S11311404DEF52E060E081E00E94A20149E554E0E5
S11311506DE081E00E94A201C0904604D090470453
S1131160E0904804F090490420E030E040EE51E47F
S1131170C701B6010E94961118160CF042C081B343
S1131180806181BB82B3806182BB20E030E040E8B3
S11311905FE3609146047091470480914804909104
S11311A049040E94CA0F60934604709347048093D5
S11311B04804909349042FE986E891E02150804047
S11311C09040E1F700C0000060914604709147042C
S11311D080914804909149040E94AE10DC01CB0137
S11311E069E574E00E94AD014DEF52E060E081E0FA
S11311F00E94A20149E554E06DE081E00E94A20151
S11312008FCF20E030E048EA51E4C701B6010E94E4
S113121037108823D4F481B38F7E81BB82B38F7E51
S113122082BB8FB58E7F8FBD8FB58D7F8FBD8EB501
S11312308D7F8EBD8EB5877F8EBD8EB58F7E8EBD24
S113124080E090E00E94400842C081B3806181BB8D
S113125082B3806182BB20E030E040E85FE36091CC
S113126046047091470480914804909149040E9477
S1131270CA0F609346047093470480934804909384
S113128049042FE986E891E0215080409040E1F73D
S113129000C00000609146047091470480914804A6
S11312A0909149040E94AE10DC01CB0169E574E021
S11312B00E94AD014DEF52E060E081E00E94A20186
S11312C049E554E06DE081E00E94A20129CFFF903E
S11312D0EF90DF90CF9008950E9433080E943E0162
S11312E080915104813039F449E053E060E080E0BA
S11312F00E94A20106C049E053E060E080E00E9441
S1131300A201109245041092440411C00E9457088F
S113131081EE94E00197F1F700C00000809144044D
S113132090914504019690934504809344048091E0
S11313304404909145048F3F23E092073CF38FEFE0
S113134093E0909345048093440411C00E9457088D
S113135081EE94E00197F1F700C00000809144040D
S1131360909145040197909345048093440480919F
S11313704404909145041816190644F381B38F7DF3
S113138081BB0E943E0108958AB380618ABB8BB3FE
S113139080618BBB2FEB87E299E021508040904025
S11313A0E1F700C000008BB38F7E8BBB08956F9272
S11313B07F928F929F92AF92BF92CF92DF92EF92E1
S11313C0FF920F931F93CF93DF931F92CDB7DEB796
S11313D06C015B014A01F22E702E1982612C00E02F
S11313E010E0DDC083E193E00E94AE0F8DE794E04E
S11313F00E944D022FE58AEE90E0215080409040FB
S1131400E1F700C0000089E992E00E94AE0FEFE529
S1131410FAEE20E0E150F0402040E1F700C0000087
S113142080E293E00E94AE0F85E894E00E944D02B2
S11314308FE59AEEE0E081509040E040E1F700C093
S1131440000089E992E00E94AE0FFFE52AEE80E0F9
S1131450F15020408040E1F700C0000010C0412F4F
S11314604F0D6E2DCE0101960E94270FF601E10F5C
S1131470F11D90818981981301C00F5F1F5F1430A3
S113148070F310E010C0412F470D6E2DCE01019670
S11314900E94270FF501E10FF11D908189819813B6
S11314A001C063941F5F143070F30430B1F494E00E
S11314B0691213C087E393E00E94AE0F81E0F40148
S11314C08083FFE32DE083E0F15020408040E1F78A
S11314D000C000001092580467C00430F9F094E092
S11314E069121CC084E493E00E94AE0F83E593E08C
S11314F00E94AE0FF4011082809158048F5F809394
S11315005804FFE926E881E0F15020408040E1F7EB
S113151000C00000612C00E010E041C00430F9F488
S113152094E06916E1F084E793E00E94AE0F83E54E
S113153093E00E94AE0FF4011082809158048F5FF3
S113154080935804FFE926E881E0F1502040804070
S1131550E1F700C00000612C00E010E020C004307E
S1131560F1F094E06916D9F083E893E00E94AE0F9D
S113157083E593E00E94AE0FF40110828091580439
S11315808F5F80935804FFE926E881E0F150204002
S11315908040E1F700C00000612C00E010E0809181
S11315A05804833008F41ECF80915804833040F0EF
S11315B08BE993E00E94AE0F0E94C4091092580474
S11315C00F90DF91CF911F910F91FF90EF90DF90DB
S11315D0CF90BF90AF909F908F907F906F90089521
S11315E00F931F93CF931092510400E010E083C235
S11315F0109256040E943E0142EB53E060E080E00A
S11316000E94A201C0E023C0109256040E9465000B
S1131610809356042FE58AEE90E02150804090405C
S1131620E1F700C00000EC2FF0E0E459FB4F80919B
S1131630560480836C2F81E00E948F0180915604B0
S11316400E94420180915604882301F3CF5FC43085
S1131650D8F22FE38DE093E0215080409040E1F7F1
S113166000C000000E943E01109256042FE58AEE4D
S113167090E0215080409040E1F700C000004DEB25
S113168053E060E080E00E94A201C0E020C010921C
S113169056040E946500809356048FE493EC0197EE
S11316A0F1F700C00000EC2FF0E0EF57FB4F809102
S11316B0560480836C2F81E00E948F018091560430
S11316C00E94420180915604882319F3CF5FC430ED
S11316D0F0F29FE32DE083E0915020408040E1F759
S11316E000C000000E943E011092560469E874E0B4
S11316F08CE694E00E948B03019709F09AC063E69C
S113170074E081E894E00E948B03892B09F491C072
S11317104DEC53E060E080E00E94A20181E0809300
S113172050049FE32DE083E0915020408040E1F796
S113173000C0000079C00E943E010E94D2010E94B4
S11317406500809356048FE493EC0197F1F700C091
S1131750000080915604882391F39FE32DE083E0F9
S1131760915020408040E1F700C000000E943E01FB
S113177080915604823309F446C018F4813341F051
S113178051C0833309F444C0843309F446C04AC0C9
S1131790109251044FE360EA8FE494E00E94270F13
S11317A041E460EA8EE494E00E94270F80915104A2
S11317B0813089F480914F040E94BE048AED93E045
S11317C00E94AE0F86E594E00E94C40F80915604F7
S11317D00E94BE0412C080914E040E94C5054AEDC9
S11317E053E060E080E00E94A2010E9465008093C3
S11317F056048823D1F30E94C5051092560481E053
S11318008093500411C00E945A08109256040CC0D0
S11318100E946C091092560407C010925004109252
S1131820560402C01092560480915004811183CF53
S113183066C161E974E08CE694E00E948B03019731
S113184009F09AC060E774E081E894E00E948B0399
S1131850892B09F491C04DEC53E060E080E00E94D4
S1131860A20181E0809350049FE32DE083E0915036
S113187020408040E1F700C0000079C00E943E0192
S11318800E94D2010E946500809356048FE493EC79
S11318900197F1F700C0000080915604882391F36A
S11318A09FE32DE083E0915020408040E1F700C0A9
S11318B000000E943E0180915604823309F446C020
S11318C018F4813341F051C0833309F444C08433A4
S11318D009F446C04AC0109251044FE360EA8FE411
S11318E094E00E94270F41E460EA8EE494E00E94B1
S11318F0270F80915104813089F480914F040E9414
S1131900BE048AED93E00E94AE0F86E594E00E9447
S1131910C40F809156040E94BE0412C080914E04EC
S11319200E94C5054AED53E060E080E00E94A201F8
S11319300E946500809356048823D1F30E94C50554
S11319401092560481E08093500411C00E945A08FA
S1131950109256040CC00E946C091092560407C0E1
S1131960109250041092560402C0109256048091B2
S11319705004811183CFC3C068E774E08CE694E01F
S11319800E948B03019709F09AC064E774E081E830
S113199094E00E948B03892B09F491C04DEC53E031
S11319A060E080E00E94A20181E0809350049FE304
S11319B02DE083E0915020408040E1F700C000001A
S11319C079C00E943E010E94D2010E94650080936A
S11319D056048FE493EC0197F1F700C00000809166
S11319E05604882391F39FE32DE083E09150204037
S11319F08040E1F700C000000E943E01809156043F
S1131A00823309F446C018F4813341F051C0833362
S1131A1009F444C0843309F446C04AC01092510406
S1131A204FE360EA8FE494E00E94270F41E460EA08
S1131A308EE494E00E94270F80915104813089F450
S1131A4080914F040E94BE048AED93E00E94AE0F81
S1131A5086E594E00E94C40F809156040E94BE045F
S1131A6012C080914E040E94C5054AED53E060E027
S1131A7080E00E94A2010E9465008093560488239E
S1131A80D1F30E94C5051092560481E0809350045E
S1131A9011C00E945A08109256040CC00E946C098E
S1131AA01092560407C0109250041092560402C0BB
S1131AB01092560480915004811183CF20C00F5F8F
S1131AC01F4F9FE926E881E0915020408040E1F7D4
S1131AD000C000000E943E0148EE53E060E080E058
S1131AE00E94A2019FE926E881E0915020408040B5
S1131AF0E1F700C00000033011050CF479CD033088
S1131B001105A9F49FE926E881E091502040804026
S1131B10E1F700C000000E943E0147EF53E060E09F
S1131B2080E00E94A2010E94C4090E943E01CF915C
S1131B301F910F9108950E942C010E94490080E892
S1131B4095E20E94780F80E895E20E94480F0E9477
S1131B50CD0E0E94040F0E942C010E9444020E9498
S1131B600F0286E594E00E94C40F86E790E00E948D
S1131B70AE0F80915604813321F0823309F4E2C020
S1131B80EECF42E054E060E080E00E94A2010F2E1C
S1131B90F0EAEF2EF02D06E022E041E554E065E89E
S1131BA074E08DE794E00E94D709C6C00E94B10199
S1131BB08CE794E00E94C40F86E790E00E94AE0F89
S1131BC080917C04873331F41092560480E380932F
S1131BD07C04C5CF833309F459C028F4813361F000
S1131BE0823309F1A2C0853309F497C008F45FC0B9
S1131BF0863309F495C099C040E060EA8BE694E02E
S1131C000E94270F40916B044093610060E080EADA
S1131C100E940A0F40E060EA82E594E00E94270FE8
S1131C200E94790289C040E060EA8BE694E00E9459
S1131C30270F40916B044093610060E080EA0E94AA
S1131C400A0F2EE04AE063E674E089E894E00E941B
S1131C50CC0626E142E160E774E081E994E00E9469
S1131C60CC062EE14AE164E774E088E794E00E9440
S1131C70CC0640E060EA8BE694E00E94270F809156
S1131C806B04809361000E94E50356C042E054E077
S1131C9060E080E00E94A2014DE054E060E081E059
S1131CA00E94A2010E94EB010E943E0145C04FE345
S1131CB060EA8FE494E00E94270F41E460EA8EE436
S1131CC094E00E94270F80915104813089F480911F
S1131CD04F040E94BE0487E194E00E94AE0F86E5A3
S1131CE094E00E94C40F809156040E94BE0412C066
S1131CF080914E040E94C50547E154E060E080E015
S1131D000E94A2010E946500809356048823D1F3A7
S1131D100E94C505109256040FC00E945A080CC0B8
S1131D200E9433080E946C0907C080E380937C04FE
S1131D3087E294E00E94AE0F80915104813009F44F
S1131D4035CF0DCF40E060EA8BE694E00E94270F88
S1131D5040916B044093610060E080EA0E940A0FA6
S1131D602EE04AE063E674E089E894E00E94CC0641
S1131D7026E142E160E774E081E994E00E94CC0648
S1131D802EE14AE164E774E088E794E00E94CC061F
S1131D900E9409070E94F00AE2CE1ABA87E886B9BF
S1131DA080E487B9089597B18F70982B97B986B15D
S1131DB0806486B9349BFECF83E08A95F1F70000F6
S1131DC024B185B190E0982F8827820F911D089542
S1131DD083B984E886BF06B607FEFDCF089584EA7A
S1131DE086BF06B607FEFDCF089584E986BF089531
S1131DF0811103C084EC86BF02C084E886BF06B6A6
S1131E0007FEFDCF83B1089511B882E080B984E460
S1131E1086BF08951F93CF93DF93182FD62FC42F17
S1131E200E94EF0E812F0E94E80E8D2F0E94E80E73
S1131E308C2F0E94E80E0E94F50E83ED90E301972B
S1131E40F1F700C00000DF91CF911F9108950F9327
S1131E501F93CF93DF93EC01162F042F0E94EF0EF4
S1131E60812F0E94E80E802F0E94E80E0E94EF0E40
S1131E70812F81600E94E80E81E00E94F80E888321
S1131E800E94F50E8881DF91CF911F910F910895E3
S1131E909C018AB188608AB980B58F7780BDC901F9
S1131EA0A0E0B0E0880F991FAA1FBB1F880F991FDD
S1131EB0AA1FBB1F9C01AD01220F331F441F551FD6
S1131EC0220F331F441F551F60E072E18AE790E040
S1131ED00E9408122150310930BD29B980B58668A5
S1131EE080BD80B5806B80BD80B5806880BD08955D
S1131EF09C018AB180618AB980B58F7780BDC901A0
S1131F00A0E0B0E0880F991FAA1FBB1F880F991F7C
S1131F10AA1FBB1F9C01AD01220F331F441F551F75
S1131F20220F331F441F551F60E072E18AE790E0DF
S1131F300E9408122150310930BD29B980B5866844
S1131F4080BD80B5806B80BD80B5806880BD0895FC
S1131F505D9BFECF8CB95E9BFECF08950F931F93BC
S1131F60CF93DF938C01C0E0D0E003C00E94A80FA0
S1131F702196F801EC0FFD1F80818111F7CFDF91CD
S1131F80CF911F910F910895FC015F9BFECF8CB1FF
S1131F90808308955058BB27AA270E94E20F0C940F
S1131FA05C110E944E1138F00E94551120F039F452
S1131FB09F3F19F426F40C944B110EF4E095E7FBC3
S1131FC00C944511E92F0E946D1158F3BA1762075A
S1131FD073078407950720F079F4A6F50C948F1104
S1131FE00EF4E0950B2EBA2FA02D0B01B901900130
S1131FF00C01CA01A0011124FF27591B99F0593F74
S113200050F4503E68F11A16F040A22F232F342FBB
S11320104427585FF3CF469537952795A795F04009
S11320205395C9F77EF41F16BA0B620B730B840B1E
S1132030BAF09150A1F0FF0FBB1F661F771F881FD6
S1132040C2F70EC0BA0F621F731F841F48F487952E
S113205077956795B795F7959E3F08F0B0CF939520
S1132060880F08F09927EE0F9795879508950E9499
S1132070211108F481E008950E9450100C945C1121
S11320800E94551158F00E944E1140F029F45F3F10
S113209029F00C94451151110C9490110C944B118E
S11320A00E946D1168F39923B1F3552391F3951BA5
S11320B0550BBB27AA2762177307840738F09F5F65
S11320C05F4F220F331F441FAA1FA9F335D00E2ED2
S11320D03AF0E0E832D091505040E695001CCAF73F
S11320E02BD0FE2F29D0660F771F881FBB1F261702
S11320F037074807AB07B0E809F0BB0B802DBF01D9
S1132100FF2793585F4F3AF09E3F510578F00C94A7
S113211045110C9490115F3FE4F3983ED4F38695F7
S113212077956795B795F7959F5FC9F7880F911DC8
S11321309695879597F90895E1E0660F771F881FB4
S1132140BB1F621773078407BA0720F0621B730B67
S1132150840BBA0BEE1F88F7E09508950E94B51022
S11321606894B1110C94901108950E94751188F02F
S11321709F5798F0B92F9927B751B0F0E1F0660F47
S1132180771F881F991F1AF0BA95C9F714C0B13088
S113219091F00E948F11B1E008950C948F11672F74
S11321A0782F8827B85F39F0B93FCCF386957795B7
S11321B06795B395D9F73EF49095809570956195A0
S11321C07F4F8F4F9F4F0895E89409C097FB3EF4CB
S11321D090958095709561957F4F8F4F9F4F992370
S11321E0A9F0F92F96E9BB279395F69587957795EE
S11321F06795B795F111F8CFFAF4BB0F11F460FFAE
S11322001BC06F5F7F4F8F4F9F4F16C0882311F005
S113221096E911C0772321F09EE8872F762F05C019
S1132220662371F096E8862F70E060E02AF09A95B4
S1132230660F771F881FDAF7880F9695879597F9A9
S11322400895990F0008550FAA0BE0E8FEEF161643
S11322501706E807F907C0F012161306E407F50796
S113226098F0621B730B840B950B39F40A2661F00A
S1132270232B242B252B21F408950A2609F4A140AD
S1132280A6958FEF811D811D089597F99F6780E8BA
S113229070E060E008959FEF80EC089500240A94B4
S11322A01616170618060906089500240A9412162D
S11322B01306140605060895092E0394000C11F460
S11322C0882352F0BB0F40F4BF2B11F460FF04C00D
S11322D06F5F7F4F8F4F9F4F089557FD9058440F66
S11322E0551F59F05F3F71F04795880F97FB991F71
S11322F061F09F3F79F0879508951216130614062E
S1132300551FF2CF4695F1DF08C0161617061806BA
S1132310991FF1CF86957105610508940895E89495
S1132320BB2766277727CB0197F908950E942111CF
S113233008F48FEF08950E94AE110C945C110E9472
S11323404E1138F00E94551120F0952311F00C9491
S113235045110C944B1111240C9490110E946D1191
S113236070F3959FC1F3950F50E0551F629FF001E4
S1132370729FBB27F00DB11D639FAA27F00DB11DFD
S1132380AA1F649F6627B00DA11D661F829F222786
S1132390B00DA11D621F739FB00DA11D621F839F0D
S11323A0A00D611D221F749F3327A00D611D231FE3
S11323B0849F600D211D822F762F6A2F11249F5731
S11323C050409AF0F1F088234AF0EE0FFF1FBB1F34
S11323D0661F771F881F91505040A9F79E3F5105F3
S11323E080F00C9445110C9490115F3FE4F3983EF7
S11323F0D4F3869577956795B795F795E7959F5F9D
S1132400C1F7FE2B880F911D9695879597F908952E
S1132410A1E21A2EAA1BBB1BFD010DC0AA1FBB1FE4
S1132420EE1FFF1FA217B307E407F50720F0A21B56
S1132430B30BE40BF50B661F771F881F991F1A94C3
S113244069F760957095809590959B01AC01BD01ED
S1132450CF010895052E97FB1EF400940E944112AB
S113246057FD07D00E94081207FC03D04EF40C94C9
S1132470411250954095309521953F4F4F4F5F4FF6
S1132480089590958095709561957F4F8F4F9F4FDC
S11324900895BB274A3031F4992322F4BDE2909584
S11324A081959F4F0C945512BB27FB015527AA27F2
S11324B0880F991FAA1FA41710F0A41B83955051CD
S11324C0B9F7A05DAA3308F0A95DA193009779F745
S11324D0B111B1931192CB010C946E12DC01FC0189
S11324E0672F71917723E1F7329704C07C916D9344
S11324F070836291AE17BF07C8F30895F894FFCFB5
S113250030307361736F3138313260302A2A2A2AAD
S11325102A2A2A2A2A2A0D0A00312D4164642075A8
S11325207365720D0A00322D52656D6F76652075E4
S11325307365720D0A00332D446F6F7220436F6E02
S113254074726F6C0D0A00342D4C616D7020436FF2
S11325506E74726F6C0D0A00352D414320436F6E0B
S113256074726F6C0D0A00362D44696D6D696E6767
S113257020436F6E74726F6C0D0A00372D526574B0
S113258075726E20486F6D650D0A00312D6C65649F
S11325907300322D414300332D44696D6D65720023
S11325A0342D686F6D6500446F6F72204F70656ED7
S11325B0696E6700446F6F72204F70656E696E6755
S11325C0202D576169742035205365636F6E6473E1
S11325D00D0A00312D61646D696E5F6D6F64650D68
S11325E00A00322D757365725F6D6F64650D0A00A4
S11325F0656E7465725F69645F666F725F7573653B
S113260072310D0A00656E7465725F70696E5F6683
S11326106F75725F64696769745F666F725F757303
S11326206572310D0A00656E7465725F69645F6678
S11326306F725F75736572320D0A00656E74657230
S11326405F70696E5F666F75725F64696769745FF6
S1132650666F725F75736572320D0A00656E74651C
S1132660725F69645F666F725F75736572330D0ABA
S113267000656E7465725F70696E5F666F75725F18
S113268064696769745F666F725F75736572330D31
S11326900A005468657265206973204D6178204E84
S11326A0756D626572206F662075736572730D0AAD
S11326B0005573657220466F756E6420616E6420E8
S11326C044656C657465640D0A00546F74616C2014
S11326D0557365727320657175616C7320300D0AD2
S11326E000546F74616C2055736572732065717545
S11326F0616C7320310D0A00546F74616C20557342
S113270065727320657175616C7320320D0A004E19
S11327106F20757365727320746F2052656D6F76C8
S1132720650D0A00656E7465725F69645F666F7239
S11327305F757365720D0A002D2D2D2D2D2D2D2DF8
S11327402D2D2D2D2D2D2D0D0A00656E7465725FB6
S113275070696E5F666F725F757365720D0A0055FE
S1132760736572206E6F7420466F756E640D0A0077
S11327706C65645F315F6F6E006C65645F325F6FC0
S11327806E006C65645F335F6F6E006C65645F340C
S11327905F6F6E006C65645F355F6F6E0054656DCE
S11327A070657261747572650044696D6D6572203F
S11327B04F6E00656E7465725F6E616D650D0A0023
S11327C0656E7465725F70696E5F666F75725F6463
S11327D0696769740D0A005375636365737366757D
S11327E06C0D0A00496E76616C69645F4E616D65BB
S11327F00D0A00506C6561736520456E7465722026
S1132800526967687420496E666F726D6174696F8E
S11328106E0D0A00496E76616C69645F5061737372
S11328200D0A00696E766C6169645F6E616D655F47
S1132830616E645F706173730D0A00776169745F20
S1132840357365635F666F725F62757A7A65720D60
S11328500A00656E7465725F6E616D6500656E7405
S113286065725F70696E5F345F6E756D0057656C7D
S1132870636F6D655F486F6D6500656E746572208A
S11328806C656420317E3500757365725F6E6F749C
S11328905F666F756E640073797374656D5F6F66E0
S11328A0660061646D696E5F6D6F646500646F6F6F
S11328B0725F6F70656E00656E746572206C65641E
S11328C020317E350D0A00506C6561736520456EBC
S11328D07465722052696768742043686F69636520
S10728E00D0A0000D9
S9030000FC
